:020000041000EA
:1000000000B5324B212058609868022188439860DF
:10001000D860186158612E4B002199600221596106
:100020000121F02299502B49196001219960352056
:1000300000F044F80222904214D00621196600F024
:1000400034F8196E01211966002018661A6600F04E
:100050002CF8196E196E196E052000F02FF8012189
:100060000842F9D1002199601B49196000215960AB
:100070001A491B48016001219960EB211966A021F2
:10008000196600F012F800219960164914480160C1
:100090000121996001BC002800D000471248134993
:1000A000086003C880F30888084703B5996A0420EC
:1000B0000142FBD001200142F8D103BD02B5186610
:1000C0001866FFF7F2FF186E186E02BD00000240BE
:1000D000000000180000070000035F00212200005C
:1000E000F4000018222000A00001001008ED00E03C
:1000F00000000000000000000000000074B24E7A12
:1001000000200420F7010010C3010010C5010010F9
:10011000C1010010C1010010C1010010C101001097
:10012000C1010010C1010010C1010010C701001081
:10013000C1010010C1010010C9010010CB01001065
:10014000CD010010CD010010CD010010CD01001037
:10015000CD010010CD010010CD010010CD01001027
:10016000CD010010CD010010CD010010CD01001017
:10017000CD010010CD010010CD010010CD01001007
:10018000CD010010CD010010CD010010CD010010F7
:10019000CD010010CD010010CD010010CD010010E7
:1001A000CD010010CD010010CD010010CD010010D7
:1001B000CD010010CD010010CD010010CD010010C7
:1001C00000BE00BE00BE00BE00BE00BEEFF3058054
:1001D000103800BEF2EB8871109E0010349E0010A3
:1001E0003802001090A31AE71E481F49086006C88D
:1001F00081F3088810471D480068002801D019487D
:10020000F3E70DA40ECC002902D000F012F8F9E7B4
:100210001749184A002000E001C19142FCD116495B
:100220008847164988471649884700BEFDE701C937
:1002300001C29A42FBD37047349E0010D0000020C8
:10024000D81000203CAE0010000004200000042064
:100250003CAE00100010042000100420000000003C
:10026000704700000000000008ED00E0000000D032
:10027000D8100020A87E0220FD600010A9120010F6
:10028000F5600010F8B5C04606480749091A8B10FA
:10029000C90FC91810B5491003D0044B002B00D06A
:1002A000984710BDD8100020D81000200000000092
:1002B000054B10B5002B03D00449054800E000BFF2
:1002C000FFF7E2FF10BDC046000000003021002013
:1002D00060920010F0B54746CE4680B5B44F87B067
:1002E0003B68012B00D197E03B68022B21D03B6893
:1002F000042B00D118E13B68052B00D1C1E03B681D
:10030000062B00D129E13B68AA4E072B00D18DE1D5
:100310003368A94A013333601368012B02D0022BE2
:1003200000D037E10021A5483B60016031601160D9
:1003300067E0D02380229F4E12021B065A6130686C
:100340003368984603F060FA9D4A9E4B03F0F9F932
:10035000040040460D0003F057FA02000B00200095
:10036000290003F0EEF90022974B03F0C3F903F0E4
:10037000A3FA04F06BFA0022944B03F0E2F9002296
:10038000934B03F0C0F903F07FFA02900299914B6E
:100390008A4D1A682C6852181A601B688E4A1B0E08
:1003A0009B009858E3172200C11704F07FF98023BF
:1003B0001B019C464904C00B0843884BC013604492
:1003C00018603368C72B53D8854B1B681B192B60EB
:1003D000844B85490343012284480B8008F00CFFBD
:1003E0003368013333603268814B9A4204D1002371
:1003F000714A3B6013603360D02380221B061202D7
:100400009A61D02301201B061A687A4B1A6007B044
:10041000C0BCB946B046F0BDD02380221B061202F4
:10042000644E5A61306803F0EFF9734A734B03F07E
:1004300088F90022724B03F066F903F053FA0022A8
:10044000704B03F07EF900226F4B03F053F903F079
:1004500033FA04F0FBF900225C4B03F072F900223E
:100460005B4B03F050F903F00FFA019001998EE70E
:100470003268664B9A42ABD9654B1B68E41A2C6014
:10048000A6E74C4E306803F0BFF9624A624B03F0B6
:1004900058F90022614B03F02DF903F00DFA04F036
:1004A000D5F90022494B03F04CF90022484B03F0E8
:1004B0002AF903F0E9F903900399464B3F4D1A6876
:1004C0002C6852181A601B68434A1B0E9B009858F0
:1004D000E3172200C11704F0E9F880231B019C46B2
:1004E0004904C00B08433D4BC01360441860336897
:1004F000C72B29D83A4B1B681B192B60394B3A493B
:100500000343012239480B8008F076FE336801333B
:1005100033603268364B9A4200D072E70023264A95
:100520003B60136033606CE7224B1A6801321A603B
:1005300096221968D200914200D062E700223A6008
:100540001A601D4B1A605CE73268304B9A42D5D96D
:100550002F4B1B68E41A2C60D0E7164E306803F06E
:1005600053F92F4A2F4B03F0ECF800222E4B03F0E7
:10057000C1F803F0A1F904F069F90022134B03F06C
:10058000E0F80022124B03F0BEF803F07DF904906E
:10059000049992E7042B00D1C4E6052B00D0BAE001
:1005A0000023064913600B6005213960336028E79A
:1005B00064140020C81C0020081D0020CC1C002052
:1005C0007B8505F7031E283F00409F400000F04157
:1005D0000088E34050210020742200206014002095
:1005E000881B002000B0FFFF947E022000C0034063
:1005F00050140000C41C00207A008BFCFA2109C0B2
:100600000050B440004070C000309B408813000090
:10061000D01C00202EFF21FDF675E2BF0070B74010
:10062000FA7E6ABC7493C8BF0070A7403068336814
:1006300099463368984603F0E7F83A4A3A4B03F094
:1006400080F8040048460D0003F0DEF802000B00BD
:100650002000290003F075F8040040460D0003F067
:10066000D3F8324A324B03F06CF802000B00200042
:10067000290003F03FF800222E4B03F03BF803F073
:100680001BF904F0E3F800222B4B03F05AF8002288
:100690002A4B03F038F803F0F7F8294B0590059939
:1006A0001A68284D52181A601B68274A1B0E9B00B7
:1006B00098582C68C117E317220003F0F7FF802336
:1006C0001B019C464904C00B0843204BC0136044E7
:1006D00018603368C72B15D81D4B1B681B192B607E
:1006E0001C4B1D49034301221C480B8008F084FD6C
:1006F000336801333360FA233268DB009A4200D05A
:100700007FE60BE73268164B9A42E9D9154B1B6816
:10071000E41A2C60E4E7062B00D103E6072B00D196
:1007200000E66EE6B11AF5F4245C50BF18E1CABDCC
:10073000BAE9FF3F00908F400000F0410088E3409D
:1007400050210020CC1C00207422002060140020C6
:10075000881B002000B0FFFF947E022000C00340F1
:1007600088130000D01C0020F0B5C646134B00B51E
:100770001B68002B21D1124B1B68002B1AD1984605
:10078000104D114E114F0FE000223C0053009B18FA
:100790009B00FB1820009B6898472A683368013249
:1007A0002A600C349A42F1DB43462B603368002BFD
:1007B000EADCFEE780BCB846F0BD9F46642100201D
:1007C0006C2100200C2100207021002078210020C5
:1007D000F0B5C646134B00B51B68002B21D1124B58
:1007E0001B68002B1AD19846104D114E114F0FE087
:1007F00000223C0053009B189B00FB1820009B68C4
:1008000098472A68336801322A600C349A42F1DB37
:1008100043462B603368002BEADCFEE780BCB84619
:10082000F0BD9F46682100206C210020102100208F
:1008300074210020F0210020E021804AF0B51368E7
:10084000C9010B407E4983B00B6004217D4B1960C8
:10085000FC3113680B42FCD053687B4A1B041B0C11
:100860001360D02380221B065F68D2001740390036
:10087000481E8141754A5E6811608022120116404F
:100880003100481E8141724A5C6811608022520129
:10089000144021005D688023481E81416D4A9B0100
:1008A0001D4011602A00511E8A416B4B1A60002EB8
:1008B00000D078E0002D00D09BE0002F4ED1002C1E
:1008C00027D1E621A52014233C22490040000094B2
:1008D00000F0F2FEE62114233C2296204900009409
:1008E00000F0EAFEE62114233C22F02049000094A7
:1008F00000F0E2FEE621D22014233C2200944900BD
:10090000400000F0D9FE0A2002F026F8200003B0D3
:10091000F0BD0723E621A5203C22009349000D33BA
:10092000400000F0C9FEE62114233C229620490035
:10093000009700F0C1FEE62114233C22F02049007C
:10094000009700F0B9FEE621D22014233C22009744
:100950004900400000F0B0FE0324D4E70723E6215D
:100960003C229620009349000D3300F0A5FEE621BD
:1009700014233C22F0204900009500F09DFEE62162
:10098000A52014233C2249004000009500F094FE6D
:10099000E621D22014233C2200954900400000F0BB
:1009A0008BFE0124AFE70723E6213C22F0200093D1
:1009B00049000D3300F080FE0024E62114233C2280
:1009C00096200094490000F077FEE621A52014232C
:1009D0003C2200944900400000F06EFEE621D22047
:1009E000009414233C224900400000F065FE0234CC
:1009F00089E70723E621D2203C22009349000D33EA
:100A0000400000F059FEE62114233C2296204900C4
:100A1000009600F051FEE621A52014233C22490057
:100A20004000009600F048FEE62114233C22F0200E
:100A30000096490000F040FE042464E700C0044032
:100A400000D0044000E00440841B0020142100205A
:100A5000182100201C2100202021002070B5002535
:100A6000040082B01423F0223C211E20009500F0E7
:100A700023FE6421200002F0EDFB0A2102F0EAFBD4
:100A800002263031CAB207233C211E200196009570
:100A900000F082FE0A21200002F0DCFB0A2102F0B5
:100AA000D9FB3031CAB207233C212D200196009595
:100AB00000F072FE20000A2102F0CCFB3031CAB2F5
:100AC00007233C213C200196009500F065FE02B012
:100AD00070BDC046F0B5DE4657464E464546E0B5C9
:100AE0000468A5B0002C00D0D8E3022507235322C8
:100AF0001E211E200195009400F04EFE0723632264
:100B00001E212D200195009400F046FE07236F2240
:100B10001E213C200195009400F03EFE0723722226
:100B20001E214B200195009400F036FE072365221C
:100B30001E215A200195009400F02EFE07233A2230
:100B40001E2169200195009400F026FE1423F02256
:100B50003C211E20009400F0AFFD072330223C21F1
:100B60001E200195009400F017FE072330223C213F
:100B70002D200195009400F00FFE072330223C2128
:100B80003C200195009400F007FED74801F0E4FEF8
:100B90000023069303933C339A46143B0493143B7F
:100BA0000593D24BD24D0893D24B0993D24B079366
:100BB000D24B9846FFF740FE089B09991A68814678
:100BC0000BA805F057FA0021002000F063FF002178
:100BD000072000F073FF012000F066FF0BA800F073
:100BE00077FF2F68C648391C03F083FD041C50466C
:100BF00003F0CDFD211C03F0C5FD061E00D0DAE098
:100C0000039803F0C4FD011C201C03F0B5FD8346CE
:100C1000002800D01BE1049803F0B9FD011C201C42
:100C200003F0AAFD002800D06CE1059803F0AFFDA9
:100C3000211C061C03F0A6FD002800D095E2059BB0
:100C400001330593049B994601330493391C301CEE
:100C500003F063FD03F0C2FD04B2381C03F0BEFDD7
:100C6000042300269B4607B221002822A0200093DF
:100C7000603300F021FD3B0021002822A0200096D7
:100C800000F01AFD5B466434282221B2A0200093B4
:100C90003B0000F011FD0A2001F05EFE2F6848467F
:100CA00003F075FD391C03F038FD03F097FD04B225
:100CB000381C03F093FD0223994607B22100282235
:100CC000FA200093623300F0F7FC3B002100282259
:100CD000FA20009600F0F0FC4B466434282221B242
:100CE000FA2000933B0000F0E7FC0A2001F034FEFC
:100CF0002F68504603F04BFD391C03F00EFD03F046
:100D00006DFD04B2381C03F069FD062307B2D7203D
:100D1000994621002822009340005E3300F0CCFC6D
:100D2000D7203B00210028224000009600F0C4FCA0
:100D30004B46D7206434282221B2009340003B0068
:100D400000F0BAFC0A2001F007FE039B2F68180090
:100D50009B4603F01CFD391C03F0DFFC03F03EFD55
:100D600004B2381C03F03AFD032207B2AA20210086
:100D70009146642300924000253200F09DFCAA2099
:100D800021003B0028224000009600F095FC4A46D6
:100D9000AA2064343B0021B200924000253200F0CA
:100DA0008BFC0A2001F0D8FD01225B4694460133FA
:100DB000E2440393FEE60026B421D72064232822D0
:100DC00000964900400000F077FC4B46042B00D011
:100DD000DDE0282001F0C0FD0124B421D720282225
:100DE000490064230094400000F066FC079B282023
:100DF0001C6001F0B1FDB421D720282249006423F2
:100E00004000009600F058FC069B01331800069342
:100E1000FFF724FE2F683A48391C03F06AFC041CD3
:100E2000039803F0B4FC211C03F0ACFC82460028BC
:100E300000D0CFE1049803F0AAFC011C201C03F0B1
:100E40009BFC002800D011E200239A46EDE6B42175
:100E5000AA206423282200964900400000F02CFCC0
:100E60004B46032B00D0C0E1282001F075FD012482
:100E7000B421AA202822490064230094400000F0F5
:100E80001BFC079B28201C6001F066FDB421AA20F2
:100E90002822490064234000009600F00DFC069BC8
:100EA000013318000693FFF7D9FD2F681448391C49
:100EB00003F01FFC041C049803F069FC011C201CB7
:100EC00003F05AFC8146002800D09EE1059803F00B
:100ED0005EFC061C011C201C03F04EFC002800D008
:100EE000D0E100230393AAE688130000841B0020AE
:100EF000FC0F002060920010081D00206C92001072
:100F00000080B1435B46B421009328226423FA2079
:100F1000490000F0D1FB4B46022B00D07FE1282096
:100F200001F01AFD0124B421282249006423FA208B
:100F3000009400F0C1FB079B28201C6001F00CFD11
:100F40005B46B42128224900FA200093642300F074
:100F5000B3FB069B013318000693FFF77FFD05984E
:100F600003F015FC2F68061C391CCD4803F0C1FBAB
:100F7000011C301C03F006FC002800D05EE1059B3C
:100F80000133059301230493002399465EE6E6218D
:100F9000D22014233C2249004000009600F08CFB34
:100FA000059803F0F4FB00239A460223079A296868
:100FB000136003F0B2FB002403F010FC642328222A
:100FC00001B20094A02000F077FB049803F0DFFB4F
:100FD000296803F0A2FB03F001FC6423282201B27C
:100FE0000094FA2000F068FB504603F0D0FB29681B
:100FF00003F093FB03F0F2FB01B2D7206423282215
:101000000094400000F058FB039803F0C0FB2968EF
:1010100003F083FB03F0E2FB01B2AA200526642360
:1010200028220094400000F047FB07234722F021CC
:10103000B4200196009400F0AFFB07234122F02179
:10104000D2200196009400F0A7FB07234D22F02147
:10105000F0200196009400F09FFB87200723452293
:10106000F02101960094400000F096FB96200723A3
:101070002022F02101960094400000F08DFBA52075
:1010800007234F22F02101960094400000F084FBDA
:10109000B42007235622F02101960094400000F06E
:1010A0007BFBC32007234522F021019600944000DA
:1010B00000F072FBD22007235222F0210196009407
:1010C000400000F069FBE12007232122F021019676
:1010D0000094400000F060FBF0200196714E072361
:1010E0002122F0210094400000F056FB3468404675
:1010F000210005F00DFA4746002C0AD1346838006B
:10110000210005F005FA0A2001F026FC002CF5D09C
:10111000B8460024C82202266423F021B4205200DD
:10112000009400F0C9FA1423F0223C211E20009400
:1011300000F0C2FA072330223C211E2001960094C1
:1011400000F02AFB072330223C212D200196009439
:1011500000F022FB072330223C213C200196009422
:1011600000F01AFB0023069324E50024B421642335
:101170002822A0200094490000F09EFA4B46012B43
:1011800067D1282001F0E8FB4B46B4212822490012
:10119000A0200093642300F08FFA4A46079B282082
:1011A0001A6001F0D9FBB42164232822A020490051
:1011B000009400F081FA069B002601331800069384
:1011C000FFF74CFC01230593049B2F6899460133DC
:1011D00004933BE5B421AA20642328220096490009
:1011E000400000F069FA00239A460023E621A5207A
:1011F0003C22009349001433400000F05DFA05984A
:1012000003F0C5FA00230393CFE6B4216423282218
:10121000FA200096490000F04FFA002303930023C0
:10122000E6213C22F02000934900143300F044FAF8
:10123000059803F0ACFA00230493B6E65B46B421AC
:10124000009328226423A020490000F035FA0023EF
:1012500004930023E621962000933C221433490096
:1012600000F02AFA0023002005939EE65346B4219D
:10127000009328226423FA20490000F01DFA00237D
:101280009A46CCE74B46B421009328226423A02041
:10129000490000F011FA00230393DAE7A746C0469D
:1012A0000080B1431040014070B504208AB0D024C2
:1012B00000F0B8FC10232406A3620A2000F0B2FC60
:1012C0008023DB00A3620B2000F0ACFC80231B0119
:1012D000A3620C2000F0A6FC80235B01A3620D201A
:1012E00000F0A0FC80239B01A36205F039F800F018
:1012F000E1F807F0DBFE1F211A2000F051FC574DEA
:10130000002200211A2000F065FC00211A2000F0C4
:1013100075FC2800524907F001FD02228026514940
:101320006B680A60296813400D325140C0320A4090
:101330004D4904200A604D4A0121136000F030FC41
:101340000121062000F02CFC0121072000F028FCE0
:101350000121052000F024FC7600082000F062FC4A
:1013600066621920A66100F05DFC80239B04636225
:101370000F20A36100F056FC8023C8221B02636289
:10138000A3613B4BD20318680124C117430CC90366
:101390001943C003002301F083FF364B364D18601C
:1013A000364B1860002308C5200003F0F5F903F060
:1013B0004DFA334A334B02F0C4F90022324B02F0AB
:1013C000C0F902F08FFA0022304B02F0BAF9002285
:1013D0002F4B02F0B6F902F033FA013401C5B442E2
:1013E000E2D1002401F04AF904AB0293294B0194A5
:1013F000009319225242D31701F03AFBD0231B0667
:101400001B68012B16D0244A1368092B07DD002224
:10141000224B1A60FFF7A8F900200AB070BD0C201B
:1014200058431F491F4E0D186B600133AE60445086
:101430001360ECE71C4A1368092B09DC0C205843A5
:101440001A49184E0D186B600133AE60445013609A
:101450000022174B1A60FFF7BBF9DDE700C003401D
:10146000002D310104F0034000D0034004E00340AC
:10147000F80F0020881B002074220020D01C0020C0
:101480006F1283C0CA2119400000703F00FC9F40CA
:101490000000E040D50200107021002064210020EF
:1014A00078210020D50A001074210020F0210020AE
:1014B00068210020F0B5D6464F464646C0B56D4976
:1014C0008AB06D4807F0C8FC6C4906006A4807F00E
:1014D000C3FC6B490500684807F0BEFC002380226E
:1014E00099460593F82352025B0202920393C023AC
:1014F00004001B03102202A906A89846049303F0D7
:1015000029FA3100731C08310A03DB01134306A9D1
:10151000102202A8079303F01DFA5A4B01270593E6
:10152000A0230621DB0210209A46029300F038FB2C
:101530000123102200215048009707F00FFD3200D0
:10154000002102AB4C4807F063FD29006B1C0D31F4
:101550000A03DB0113434C4A062113408022D205C3
:101560001343079343460893484B1120099353466E
:10157000069300F015FB0123112201213E4800973C
:1015800007F0ECFC2A00012106AB3B4807F040FDC8
:101590004B4680220593F82352025B02029203938A
:1015A0004346102202A906A8049303F0D3F92200AF
:1015B000A31C08321203DB01134306A9102202A860
:1015C000079303F0C7F9324B06211220059300F070
:1015D000E7FA0621132000F0E3FA0621142000F0B8
:1015E000DFFA0323122202212348009707F0B6FCFA
:1015F0002200022102AB204807F00AFDA023254A61
:10160000DB051A60244A25495A60962292029A60A4
:10161000234A1A61234A116080215360224B97604C
:101620001361154A490253680B42FCD180211F4BBC
:1016300089021361104A53680B42FCD1E0238021D8
:10164000FF3353610C4AC90253680B42FCD140235B
:10165000FF339361164B174A01211A60A02286239B
:10166000D205DB00D1500AB0E0BCBA46B146A8466C
:10167000F0BDC04644990010000020502099001091
:101680000499001000020004FFFFFF9F2046004461
:101690005202300C94260020180020500010002028
:1016A000110801004000005009801F008F02000057
:1016B0000020205007070000F0B557464E46DE4692
:1016C0004546E0B585B01F000EAB1B781218994651
:1016D00003910300904245DA8C4608004946C90050
:1016E000C9B267448846B8423CDAF02149008C46CA
:1016F000A939FF398A4631398B464146009111009C
:101700001A004B46224D019316B2F643A023F6175A
:10171000164036B29B009E4200DB1E4E01238946D6
:101720000398029202B2011C624502DBE022FF3202
:10173000111C09B2CA43D21711408A005218D201B3
:1017400092195410295D134213D15A469143019ABC
:101750000130114329558742E4D1029A49460132AA
:101760004A45D1D105B0F0BCBB46B246A946A04619
:10177000F0BD52469143009A013011432955B842B9
:10178000D0D1029A494601324A45BDD1EAE7C04666
:10179000942600207F020000F0B54E464546DE4606
:1017A0005746E0B595B098461EAB1E781FAB1C7827
:1017B000A02303960F949B00984200DBB3E0A03B6C
:1017C000994200DBAFE0A446630063445B001B1852
:1017D000002B00DCA7E0E3005B18002B00DCA2E09C
:1017E000F300DBB204934346DB00DBB2029383B227
:1017F0009C4693009B18A44A8FB29C183B00083368
:101800009BB2079338239A46313B9B466346654615
:101810000020119343460E950500139401931297EF
:10182000052D00D12EE1139B5C5D6B4638229B5E3B
:101830000F9E9C460893119B3200581903B2DB435C
:10184000129FDB17390062440340099310950592FB
:10185000E3076FD5012E00D1C2E0089B05983AB28C
:1018600083424DDAB0188446824249DA0B91110066
:101870006246A02500921A00AD00844806950A949D
:10188000A03D0C970D9617B2FF43FF171740069B1C
:101890003FB29F4200DB7E4F0C00012389469446F5
:1018A00008E05A469143019A01341143009A815548
:1018B000A2421BD022B2211CAA4202DBE022FF324C
:1018C000111C09B2CA43D21711408A005218D20122
:1018D000D2195610815D1342E3D052469143029AC9
:1018E00001341143009A8155A242E3D16246059B1F
:1018F000013249469342C6D10A9C0B990C9F0D9E1A
:101900000131079BF71989B26408BFB299429FD190
:101910000F9B0E9E9C46109D6644B3B201350E93FC
:10192000062D00D07CE715B0F0BCBB46B246A946F8
:10193000A046F0BD039B019A9342E1D0012E72D0E4
:10194000089B05983AB28342DADAB018844682429C
:10195000D6DA0B9111006246A02500921A00AD0064
:101960004A4806950A94A03D0C970D9617B2FF437E
:10197000FF171740069B3FB29F4200DB444F0C000D
:1019800001238946944608E05A469143039A01345C
:101990001143009A815594421BD022B2211CAA42C5
:1019A00002DBE022FF32111C09B2CA43D2171140F8
:1019B0008A005218D201D2195610815D1342E3D029
:1019C00052469143049A01341143009A815594423E
:1019D000E3D16246059B013249469342C6D18BE76B
:1019E000F02208B20B1C5200904201DBE023FF33CF
:1019F0001AB2D343DB171A4093009B186A46A02003
:101A00002425525FDB018000824200DB204A9B18C4
:101A10001E485D10425DDB0728D553469A43029B62
:101A20001A4342556CE7F02208B20B1C5200904258
:101A300001DBE023FF331AB2D343DB171A409300D4
:101A40009B186A46A0202425525FDB018000824259
:101A500000DB0F4A9B180D485D10425DDB070BD57C
:101A600053469A43049B1A43425549E75B469A43BF
:101A7000019B1A43425543E75B469A43039B1A4333
:101A800042553DE70024D0E608940010942600203B
:101A90007F020000024B1880024B19807047C0463D
:101AA000967E0220987E0220034A031C002800D163
:101AB0000123DBB2138070479A7E0220024B18701C
:101AC000024B19707047C046A57E0220A47E0220FA
:101AD000F0B5CE46474680B50278040083B0002AB0
:101AE00022D0294B294D9946294E0DE00D2A08D0C8
:101AF0002888092A1DD19F239B00984201D20430D7
:101B000028802278002A0FD001340A2AEED1214BF6
:101B10001F4A1B881188DB005B18138000221B4BB7
:101B20001A802278002AEFD103B0C0BCB946B04673
:101B3000F0BD4B460027F15F164F1B78B8463F7843
:101B400000B20197144F3F780097FFF725FE4346F8
:101B50001A8829885300D3185B005B180F499BB281
:101B600009782B800029CCD0A020800084469100E9
:101B7000511A490061448B42C3DD3388D200D21828
:101B8000002332802B80BCE7A57E0220967E0220B7
:101B9000987E02209A7E0220A47E0220A77E022048
:101BA000094A83009A1810B51468402254408032C4
:101BB0002240064CC000A44663441A60044B9C4675
:101BC0006044416010BDC04604C0014004D00140E3
:101BD00000400140074B8000C3181B68C9009200F9
:101BE0000A435A400C231340034A9446604403605E
:101BF0007047C04604C0014004D001408000002965
:101C000005D0064B9C464023604403607047044B5C
:101C10009C46402360440360F8E7C04604E001406E
:101C200004F001400123D0228340120693629361A5
:101C3000094A83009A1811684022514080320A40B4
:101C40000649C0008C4663441A60054B9C46052338
:101C5000604443607047C04604C0014004D0014066
:101C6000004001408023DB051868000F7047C04624
:101C70000FB400B5084883B004F0C2FB049B002BEE
:101C800007D005A91800019104F01AFA034804F0DE
:101C9000B7FB012004F02CFA74920010849200101B
:101CA000EFF3108072B6034A1368002BFCD0BFF329
:101CB0005F8F70472C0100D0BFF35F8F0022024B73
:101CC0001A6080F3108870472C0100D070B5EFF3D4
:101CD000108C72B60D4D2B68002BFCD0BFF35F8FBC
:101CE0000724CB08C618C05C01230C40A3401C008D
:101CF0000440034207D118433070BFF35F8F2C605C
:101D00008CF3108870BD1000FFF7B2FF2C0100D0DB
:101D1000F8B54746CE46884680B5EFF3108C72B6CC
:101D2000214D2C68002CFCD0BFF35F8F9A422CD839
:101D3000D4080727055D061901241740BC402C4232
:101D40001FD007210127894609E0D408055D06193F
:101D50004C4639001440A1400C00294211D00132F8
:101D60009342F2D201204042BFF35F8F00220E4B1C
:101D70001A608CF3108800280FDBC0BCB946B0464F
:101D8000F8BD254310003570EEE7BFF35F8F0023E9
:101D90002B608CF31088012040424346002BECD08E
:101DA0000898FFF765FFC0462C0100D0044A107860
:101DB000431CDBB2172B00D9102313707047C046A9
:101DC0000410002010B5064B064C82B001000093B1
:101DD00018221F232000FFF79BFF02B010BDC04652
:101DE00088920010941C00200021044B044ABFF389
:101DF0005F8F02C39342FAD17047C046000100D002
:101E0000800100D0054B064A1360064A13605360F8
:101E10009360D360136153619361704780808080C9
:101E200000E400E004E400E01F2318401E3B834070
:101E3000002905D0C021044A49005350136070475F
:101E4000802201498B50FAE700E100E00122824044
:101E5000034B1B6813405A1E9341D8B27047C046CB
:101E600000E100E001238340014A13607047C0464F
:101E700000E200E0084B10309B688000C358002B44
:101E800007D0064A00209B1A2F229A424041C0B236
:101E900070470020FCE7C04600ED00E0081000207D
:101EA00070B50D00EFF3108672B60F4A1368002B61
:101EB000FCD0BFF35F8F0D4B10309B6884001B5923
:101EC0000B4A934203D09D4201D001F0BDF8074B6D
:101ED0009B681D51BFF35F8FBFF35F8F0022024BE2
:101EE0001A6086F3108870BD240100D000ED00E078
:101EF000CD010010F0B557464E46DE464546E0B5EA
:101F000085B0060000911700EFF3108B72B66A4A95
:101F10001368002BFCD0BFF35F8F0025674B5D5724
:101F20009A46002D00DAA9E06B00654C01935B191D
:101F30009B009846A146C1444B4652469B791036B9
:101F40001370604BB6009B6899590B1B2F2B33D92C
:101F50005D4B994200D0ACE0019B42469C465B4BF6
:101F60006544AD0063535A4B0232A218043B9B1ADE
:101F70001B05584A5B0D651913436B80564B0121B5
:101F8000AB80FF23AB71009BEF71AB604B460B4303
:101F900019004C4B9B689951BFF35F8FBFF35F8F64
:101FA0000022454B1A608BF3108805B0F0BCBB468D
:101FB000B246A946A046F0BD01200A008243D3796B
:101FC0008C46BB4231D84546130044491B1B5B413C
:101FD0005943090D3D4B63533D4B02356519043B95
:101FE0005B1B1B053B4D5B0D2B43AA464D466B808F
:101FF0000425AC465546E044131F44441B1B1B05F7
:102000005B0D1D434B46997100999D80996049462F
:10201000DF71334B01431360BBE75800C0188000E9
:102020002018C179B9422FD902000623D356002BBC
:10203000F3DA02932B4B61460393131D9A46042354
:102040005B429C46E14450464B461B1A1B055B0D08
:102050009C46204B957198466346404603439380C7
:10206000019B5A199200039BA418A380029B1C4A4F
:10207000A371009B2260E771A3608AE700F0E4FF90
:10208000002553465D574FE7908802934005131D86
:102090009A46031561469C464046D4446346043044
:1020A0002018181AE0230005400D1B021843039066
:1020B000C5E700F0C9FF4FE7240100D0A07E022051
:1020C0000810002000ED00E0CD01001000A1FFFF8E
:1020D0003810002000E0FFFF01BDFFFFAAAA0000AA
:1020E0000148804701BD000070B501240443EFF3AF
:1020F0000581EFF3108C72B6214A1368002BFCD0D7
:10210000BFF35F8F1F4B05001F4AED1A6D416A43F5
:10211000120D1E4D8900AE6852B27658A6421CD0F0
:102120000621595691421CD012215956914222D073
:102130001E215956914220D02A21595603249142FA
:1021400010D0134B19781A708171BFF35F8F002282
:102150000B4B1A608CF3108870BDAB680D4C5C5053
:10216000EFE700246100091989005B18FF219971CC
:1021700009499980E5E70124F4E70224F2E7C04623
:10218000240100D008100020AAAA000000ED00E001
:10219000A07E0220CD01001001BDFFFF10B5084B4D
:1021A000084C82B001000093002205232000FFF7B5
:1021B000AFFD002801DB1F23181A02B010BDC04676
:1021C000A4920010A67E0220024B9C466144890026
:1021D000016070474000003470B5114C114DAC42A5
:1021E0000FD2FF262368002B0CD0FFF7DFFD010084
:1021F0002000FFF7E9FFA680BFF35F8F0834AC42F1
:10220000F0D370BDFFF7D2FD01002000FFF7DCFF27
:102210002671BFF35F8F0834AC42E3D3F1E7C046C9
:10222000C8100020D810002010B50400FFF7BEFD34
:1022300001002000FFF7C8FFFF232371BFF35F8F6A
:1022400010BDC04610B504000120FFF7BBFD034BD5
:10225000C3189B002360BFF35F8F10BD40000034A4
:10226000034B9C46614489000160BFF35F8F704758
:10227000400000340A4B1968EFF3108072B60A6808
:10228000002AFCD0BFF35F8F1B68BFF35F8F002273
:102290001A6080F3108840BF002000217047C046BC
:1022A00074260020F0B5DE4657464E464546E0B55A
:1022B00083B0EFF3058203231340B54A99005258C7
:1022C0000091904601229A40B24B93461A60B24B5D
:1022D00001932EE043469B881BB2002B00DB99E064
:1022E00043469B79002B00D0DDE0434608241C5F69
:1022F000002C00DA06E143465A6963001B19DB0033
:10230000D3189D68DC686B1C00D107E1A34B0099D2
:102310009C4661449A6A0B69A81A9B1A984200D29B
:102320000D619E4800F042FC8C4200DDEAE000D1E5
:1023300026E15B4699484363434608229B5E9946E3
:10234000002BC7DB424652695B0092464B44DB00E0
:102350009A4453469E68DF6800F028FC8F42B9DC3F
:1023600000D100E1002F00DAE1E052465346546903
:102370001B69019A934200D1D4E04146524608209D
:10238000085E5288000421001043984704000D00A5
:1023900023002B4300D1CAE0002D00DBE7E0300032
:1023A0003900001BA94153469860D96000229A5E0B
:1023B000002A8FDB43465D6953009C18E4002C190A
:1023C000A768E4688C4200DD84E702D1874200D927
:1023D00080E74646328108360DE08C4200D1D3E0DA
:1023E0001E000023F25E002A0ADB53009C18E40062
:1023F0002C19A768E4689B18DB00EB188C42ECDD15
:1024000053461A804B46338043469B881BB2002BB1
:1024100000DA65E743461A69EFF3108172B6136874
:10242000002BFCD0BFF35F8F43469E8801234246BA
:102430005B42938036B21369BFF35F8F00221A604C
:1024400081F31088002E00DA4AE743465D690833BD
:1024500042469C467700BF19FF00EF19BB686046F3
:1024600098460823D15E9246FC68002907DA0EE000
:10247000A2424FD018000023C15E002906DB4B00AA
:102480005B18DB00EB18DA68A242F1DD52460680E9
:102490000023FE5E3980002EDCDA904643469B79AD
:1024A000002B00D121E70023424693714346464664
:1024B0000821595E08364B1C24D047468946556989
:1024C00002E006004B1C18D04B005B18DB00E8183C
:1024D0000A008C46E95E43881BB2002BF1DA012327
:1024E0005B42DC178360C4604A4503D031803B897E
:1024F00003803A81E1464B1CE6D14C46B846002C9D
:1025000000DBF8E640BF03B0F0BCBB46B246A946CC
:10251000A046F0BD9A684245ACD9B7E7631C00D02D
:10252000F4E6FEE6200023699847002825D15346AB
:1025300042461B8813811269EFF3108372B611684B
:102540000029FCD0BFF35F8F4246514652880A8073
:102550004246494651801269BFF35F8F00211160E6
:1025600083F31088B6E6864200D8FBE6B2E60B4855
:1025700000F01CFB0019694115E76568246807E74E
:10258000854200D8D5E6BDE7874200D828E737E77F
:10259000542100203C700540A52200100040054059
:1025A00070B52E4C2569002D04D00A212C48FFF768
:1025B0000BFE70BD2B4E0321300000F0EDFAE660FB
:1025C000FFF7F4FB284B03229C46D02322701B0606
:1025D0001B6801216370254B6044A3600F238000BA
:1025E00020610220638063694942A1801980023121
:1025F000198647311D83585218315A5275325C3949
:1026000099521832013199521832013199521832C7
:1026100001319952083518329D52023118329952BF
:102620001832013199521832013199521832013160
:1026300099521832013199521832013199520C4B8A
:102640000C49DC6001303562FFF72AFC01210320D0
:10265000FFF7EAFB084B1D60A7E7C04650100020BB
:10266000742600200040054040000034FFFF1000A9
:1026700054210020A5220010386005400048704712
:1026800050100020F8B51F0008AB1B78040016009E
:10269000002B08D100F092FA32003B00121A8B4155
:1026A000002B00DA53E02269EFF3108072B6136852
:1026B000002BFCD0BFF35F8F0223E15E63694A0009
:1026C0005218D2009B18002937DB1A8862802269D1
:1026D000BFF35F8F0025156080F31088069A9E6017
:1026E000DF601A61079A5A615A8801325204520C0B
:1026F000101C002A1FD082B258800804104326699B
:10270000EFF3108772B63268002AFCD0BFF35F8FF8
:10271000A2881A80A1802369BFF35F8F00221A600C
:1027200087F310880B4923788C4601329A40E3687E
:1027300063441A60F8BD0120DDE72369BFF35F8FB2
:1027400000221A6080F3108801204042F2E7002046
:10275000F0E7C0463C20000070B501000469EFF3CB
:10276000108C72B620680028FCD0BFF35F8F022067
:102770000D5E4C6968004019C0002418002D37DB3D
:10278000208848800869BFF35F8F002606608CF3BD
:102790001088E36063880498013320615B04059826
:1027A0005B0CA26060611A1C002B1FD093B228043E
:1027B000628018430A69EFF3108C72B61368002B1D
:1027C000FCD0BFF35F8F8B8823808D800B69BFF3B4
:1027D0005F8F00221A608CF310880B7801329A40C8
:1027E000CB6808498C4663441A6070BD0122DDE75E
:1027F0000B69BFF35F8F00221A608CF310880120F1
:102800004042F2E73C20000010B543890A1493428D
:102810001ADD53009B184269DB00D3180469EFF3FB
:10282000108C72B62268002AFCD0BFF35F8F5A88E2
:10283000090494B2090C8A4208D00369BFF35F8F80
:1028400000221A608CF31088002010BD8022120232
:1028500014435C80012302698371BFF35F8F002101
:1028600011608CF31088044902788C469340C2684A
:10287000012062441360E8E73C2000004078704784
:10288000F0B504000D0006267642F717C646361945
:102890006F4100B582B08F4214D811D000F08EF98C
:1028A00032003B00121A8B41002B17DC002B47D063
:1028B0002000290000F0C0F902B080BCB846F0BD8D
:1028C0008642EBD90022002316001F0000F076F9A3
:1028D00032003B00121A8B41002BE7DD00F06EF94D
:1028E00032003B00121A8B41002B0ADB00230193BC
:1028F000154B3200009315483B00FFF72DFF0028D1
:10290000D6DB00239C46B046114A124E736A9F42A2
:1029100004D8B16A8845CBD99F42C9D11168EFF379
:10292000108072B60B68002BFCD0BFF35F8F13686A
:10293000BFF35F8F6146196080F3108820BFE5E721
:10294000002AB5D0CAE7C0467522001050100020FA
:10295000742600200040054070B5060000F02EF9F6
:10296000FA2204000D00002330000021920001F043
:102970009DFE8023001969411B06994202D3012064
:1029800002494042FFF77CFF70BDC046FFFFFF7F5A
:10299000F0B5CE46474680B504000D0083B0EFF396
:1029A00005878846002F3ED12E4EA1463378F06829
:1029B00004339B00816A1B58601A5B1A98420ED33D
:1029C00020BF294900204B6AAB4203D38A6A0130F9
:1029D000944231D803B0C0BCB946B046F0BD00F057
:1029E000EDF822002B00121A8B41002B2FDB1F4B1E
:1029F0002200009330002B000197FFF7ADFE011E6F
:102A000025DD194B5A6AAA421BD220BF3000FFF7BE
:102A1000FBFE154A0020536A4345DBD3926A01301E
:102A20009145D7D908E0104900204B6AAB42D1D379
:102A30008A6A0130A242CDD25B1B5A1E9341D8B2A2
:102A4000C8E79B6A9C42E1D9AA42DFD1DDE7064A8A
:102A50000020536A4345BDD3926A01209145B9D9FC
:102A6000EAE7C046501000200040054075220010E3
:102A7000F0B5CE464746110080B583B004009C46B1
:102A80000C9D194300D16EE06146DB170193009362
:102A900053401E00019B4B401F0000980199361ABD
:102AA0008F4163460A996B600B9BAC606B61296137
:102AB0002A6000F083F88023801979411B0699422F
:102AC00002D30120314940422269EFF3108972B6E6
:102AD0001368002BFCD0BFF35F8F0223E65E6369AF
:102AE00072009219D2009B18002E44DB1A88628073
:102AF00022699046BFF35F8F002247463A6089F310
:102B00001088234A9860D9601A615A885D61013241
:102B10005204520C111C002A2BD088B232040243FA
:102B200059802069EFF3108772B601680029FCD044
:102B3000BFF35F8FA1881980A6802369BFF35F8FE1
:102B40000021196087F310881248237884460131E8
:102B500099400120E36863441960EA6003B0C0BC97
:102B6000B946B046F0BD00230126002701229C464D
:102B700097E70121D1E72369BFF35F8F00221A6035
:102B800089F310880020013AE7E7C046FFFFFF7F86
:102B9000A52200103C20000010B5024A0248FFF7B1
:102BA00095F810BDC0920010981C00200300416AE7
:102BB0000A00986A596A8A42FAD17047034B596AE7
:102BC0000A00986A596A9142FAD17047004005405C
:102BD00070B504000D00174A536A1900966A536ACB
:102BE0008B42FAD13000190024184D41AB4216D85F
:102BF00013D0104A2B00526A954203D90D494A6AF4
:102C00009A42FCD39A4207D10A4A02E0516A994299
:102C100002D1916AA142F9D370BDA642E9D9054B10
:102C20005B6A1C005A1CEFD0012301246442E517A3
:102C30005B42E3E700400540064A536A9942FCD8EC
:102C400007D1044B02E05A6A914202D19A6A824249
:102C5000F9D3704700400540F8B5DE464E4657466A
:102C60004546E0B58B4605000A991800160000F0AD
:102C7000F1FA0A9B6C001F02324B64199C46A400B7
:102C80006444636881469F4200D967602B1FDBB2B2
:102C90009846012B30D9C02380229B01E3181201F2
:102CA0001A60294BAD0059599A4600291BD173016E
:102CB000E026226853401E40802342465B01E31811
:102CC0001E60012A30D9802380229B01E318120163
:102CD0001A6053464A4667605A51F0BCBB46B2463A
:102CE000A946A046F8BD586900F0B4FA0130430087
:102CF0001B18033BFDD2DAE75B46012BCBD1C02387
:102D000003229B01E3181A60023AA3681A42FCD01E
:102D10007301E0262268AD0053401E4080230A4A1A
:102D20005B019246E3181E605A4621685140032217
:102D30000A401A6001225B469A40A3681A42FCD0FE
:102D4000C1E7C046008000409C1C0020F0B546460C
:102D50004F46D646C0B51F00344B44009C4624184D
:102D6000A4006444636888461600FF2B02D88023C1
:102D70005B006360031FDBB29A46012B30D9C0238E
:102D800080229B01E31812011A60294B85005959D2
:102D9000994600291BD17301E026226853401E404A
:102DA000802352465B01E3181E60012A30D980233C
:102DB00080229B01E31812011A6080235B0063608C
:102DC0004B465F51E0BCBA46B146A846F0BD5869D3
:102DD00000F040FA013043001B18033BFDD2DAE754
:102DE0004346012BCBD1C02303229B01E3181A6079
:102DF000023AA3681A42FCD07301E02622688500DB
:102E000053401E4080230A4A5B019146E3181E602E
:102E100042462168514003220A401A60012342467B
:102E20009340A2681342FCD0C1E7C0460080004036
:102E30009C1C0020014B8000C05870479C1C002047
:102E4000F8B5040021481E0017000D0000F002FA3A
:102E50000100380000F0FEF9069B36041B031E43F8
:102E60002368002B20DB1A4B1A49E3185A1E9341A2
:102E70008022920194465B421B0B174A1B0363445A
:102E80001360164A13601F000A689743FBD1144B66
:102E90002560E2182123A06013602368002BFCDA70
:102EA0000823E6601360F8BD3F2322681340AB425D
:102EB000D9D1A3681B051B0D8342D4D1EE22E36850
:102EC000D2021340B342CED1EDE7C046001BB7009B
:102ED0000040FDBF08C0004000E0004000F000409E
:102EE0000430000010B580241C4BE4051C60002851
:102EF0001AD001231A4C18431A4BDC611A4C444077
:102F00001C62596298628021144BC90519601748E8
:102F100017490860E021C9041960002A07D18022FE
:102F2000144B12061A6010BD0E4BD861EBE753012B
:102F30009B1A9B009A18802312015B049A4209D2C3
:102F400013000D490B60074B5A608022094BD205D4
:102F50001A60E8E7094B1A00F3E7C04600B00540E5
:102F6000D3C007B0008005402D3FF84FFCFF0100A3
:102F70000820014000A0054028210020FFFFFF009D
:102F80008023024A9B000B43D362704700800540B8
:102F9000142310B50100188804331B88984710BD0E
:102FA000162310B50100188802331B88984710BDFE
:102FB000F8B54746CE4680B50F1E19D01423994662
:102FC000043304000025012698464B4618884346E2
:102FD00021681B88984701C4431E9841013540422F
:102FE0000640AF42F1D13000C0BCB946B046F8BD92
:102FF0000126F8E7142370B50400188804331B88F1
:103000000D000549984703000020002C01DB01302A
:10301000A04029009847C04655420000AA23064A0E
:103020001B0113602F230549D360054B19605368BA
:10303000002BFCDA7047C0460040024000B0FA00A6
:10304000006002407047C04610B50148FEF710FE10
:10305000E492001070B5074D074EB54209D2002426
:10306000013E761BB60808CD984723000134B342D1
:10307000F9D170BD1892001054920010054B064A09
:1030800006491A60064A074B1A6010000B689843FD
:10309000FBD1704700E00040BFCDFBFE08C0004000
:1030A000FE7F3C0000F00040044BDB6C002B03D1A2
:1030B0008022034BD2021A607047C04600001150B4
:1030C0004C201150044A054B1A60054A1368DB0175
:1030D0008033FBD17047C046FFFFFF0100F0004086
:1030E00008C000404022034B9A675A671A67DA66A5
:1030F0007047C04600F0014010B5FEF775FE10BDE8
:1031000070B5044D044CA968C022200001F022FCD7
:10311000AC6070BD00ED00E000000020002310B5A1
:10312000294C82B0A367FFF779FF0122274B1A6071
:10313000636C012BFCD10322254B1A60224A936B4E
:10314000012BFCD1013300930121224A2248043390
:10315000FFF776FE052301210093204A2048FFF760
:103160006FFE0022022104201E4BFFF7EFFD00221C
:10317000012105201C4BFFF7E9FD0022002107205B
:103180001A4BFFF7E3FD002200210820174BFFF741
:10319000DDFD8023DB000093002200210920134B7A
:1031A000FFF75AFD0022104B00210620FFF7CEFD4D
:1031B0000420FFF73FFE0E4900F04CF8010000200C
:1031C000FFF7DEFE02B010BD008000403CB00040C2
:1031D00030B00040002F685900800240008C8647C4
:1031E00000C00240001BB70040597307006CDC02AE
:1031F00040420F0001480421014B18477010002085
:10320000B12F0010124A936F9B0815D29066D166B9
:10321000002905D0FFE7FFE7FFE7516F106F704708
:1032200004B580210906C2175140002800D0C843C8
:1032300005F0A2FF002104BDF0B5146E556E576F66
:10324000166FFFF7E3FF1466556657671667F0BD04
:10325000000000D0114A936F9B0813D2106651668C
:10326000002905D0FFE7FFE7FFE7516F106F7047B8
:1032700004B5002801D00020C04305F07DFF0021E7
:1032800004BDC046F0B5146E556E576F166FFFF74C
:10329000E5FF1466556657671667F0BD000000D05D
:1032A00094464A4A926F9208624601D228E0C0468C
:1032B000F0B5464E346E756E776F366F00F020F8BD
:1032C0009446424A14665566576716676246F0BDD3
:1032D00094463E4A926F9208624601D254E0C0463C
:1032E000F0B53A4E346E756E776F366F00F04CF86D
:1032F0009446364A14665566576716676246F0BDAF
:10330000002B24DB11D000293EDA00B5C94340422E
:1033100000D1013100F038F8C943404200D10131F9
:10332000DB43524200D1013300BD002AEBD100281B
:1033300001D1002905D00020C90FC90701D1C04320
:10334000410800B505F010FF0022002300BD00B5C4
:1033500000290ADBDB43524200D1013300F014F8AC
:10336000C943404200D1013100BDC943404200D1B0
:103370000131DB43524200D1013300F005F8DB4359
:10338000524200D1013300BD002923D1002B18D1B6
:10339000002A0CD0BC460D4F38667A660021002307
:1033A000FFE7FFE7FFE77A6F386F6746704700284F
:1033B00001D00748010000B505F0D6FE0022002329
:1033C00000BD02000B00002000217047000000D06B
:1033D000FFFFFFFF002B00D0BFE0130C28D1002A15
:1033E000E7D080B4114F39667A66FFE7FFE730B463
:1033F000040C7B6F396F1B0423433B667A66FFE73F
:10340000FFE7FFE7C04684B27B6F3D6F1B04234399
:103410003B667A66FFE7FFE7C04600232C042D0CCD
:103420007A6F386F00196941B0BC7047000000D056
:10343000F0B594460025140E01D112020835140F80
:1034400001D112010435940F01D192000235D40F3D
:1034500001D152000135D40B0134254F7C66254C37
:103460003C660E0C93B2FFE7FFE7FFE73C6F664355
:10347000360C7703BE467343DF0B5B04C01AB941B9
:10348000130C7343DB18C91ACE086643360CB644D6
:1034900093B273431F0F1B01C01AB941130C73433E
:1034A0001F0B1B05C01AB941860D8F023E436643B0
:1034B000360C092D24DB520A7243801A7703460A20
:1034C0006643360C16235B1BDE40DF40BF196446A3
:1034D0006643821B7046043506330100D940A8407C
:1034E000C01900D30131A24206D20023F0BD000072
:1034F000000000D0FFFFFFFF121B0130F3D3F1E704
:1035000009277F1BFE406446A2B27243801A00D294
:103510000139220C7243130C1204821A99410B00D8
:103520007046043513370100F940A840801900D3D4
:103530000131002B02D1A2420AD2F0BD013000D3EA
:103540000131121BFAD2013BF8D1A24200D2F0BDE8
:10355000013000D30131121BF7E7F0B51C0C00D08D
:1035600080E00CB400251C0A04D11B02160E334364
:10357000120208351C0B04D11B01160F3343120134
:1035800004359C0B04D19B00960F33439200023507
:10359000DC0B02D192185B4101351C009718644185
:1035A0000134464F7C66464C3C660E0CFFE7FFE755
:1035B000FFE7C0463C6F6643360C7703BE4697B2C2
:1035C0007743C01B00D20139C01B00D201399FB222
:1035D0007743C91BC91B170C77437E04FF0B801B65
:1035E000B941CE086643360C0C2D33DBB644120BC2
:1035F0001F053A431B0B97B27743C01B00D201391A
:103600009FB27743C91B170C77433E043F0C801BC6
:10361000B941860D8F023E43664329277F1BFE403A
:103620000C3D7746AF40BF1930BCA2B2ABB272437B
:103630007343801A9941220C7243130C1204801AAE
:10364000994102000B000137001BA941F9D2781EF5
:103650000021F0BD0C277F1BFE4077467F0BAF405B
:10366000FF19E0E700245D1C07D0144F7D66396622
:10367000FFE7FFE7FFE7FFE73C6F95B29EB26543C8
:103680006643401BB141150C1E0C6543664336046E
:103690002F0C3E432D04401BB141994204D202003D
:1036A0000B0020000021F0BD01D19042F7D3801A19
:1036B000994101349942F2D3F6E70000000000D0AE
:1036C000FFFFFFFF44464D4656465F46F0B4704745
:1036D000F0BCA046A946B246BB46704748404140B0
:1036E000484018B41B4B5B68FC46019308BD04DFDF
:1036F000733C001018B4174B1B68FC46019308BDBF
:1037000000DF7D3C00109446134A926F920809D264
:10371000624618B40F4BDB68FC46019308BD0CDF12
:10372000353F00100C4AF0B5146E556E576F166F8A
:103730006246FFF7EEFF084A14665566576716673C
:10374000F0BD18B4034B9B68FC46019308BD08DF2D
:10375000D93D001060120020000000D0FFB550409D
:103760004240504059404B40594000E0FFB5154F92
:103770004C00640D03D0BC4204D10C0314D80020CB
:10378000090D09055C00640D03D0BC4204D11C0383
:103790000AD800221B0D1B0501264B4009D44B40C3
:1037A00003D58B4200D18242FFBD9942FCD19042A9
:1037B000FFBD0B43DB1803431343F5D0C94349183E
:1037C000FFBD0000FF07000000B5FFF7CFFF8041FD
:1037D00000BDC04600B5FFF7C1FF01D9002000BD04
:1037E000012000BD00B5FFF7B9FF804100BD0120F9
:1037F00040054A00121804D85A00121801D80020B7
:1038000070470120704700000021002805D1704753
:10381000C1174840401AFAD0C90713B5064B1B68B8
:1038200098470CBC441CA2401005120B0349091B0D
:1038300009051943114310BD702200201F04000028
:1038400010B54C00620D8023D218DB00D21A5B0544
:103850007E2A10DD9E3A13DACC1709034908194372
:103860005242D140640001341532202A05DAD0409A
:103870000843604310BD002010BD0846604310BDE2
:10388000C80FC018013810BD18B4044B5B6AFC4661
:10389000019308BD24DF6941001000006012002080
:1038A00018B4044B1B6EFC46019308BD60DF7742E1
:1038B000001000006012002018B4044BDB6FFC46BF
:1038C000019308BD7CDF014200100000601200205F
:1038D000024A034B00B500F0ABF900BD182D44546B
:1038E000FB2119408A0002D3920D092A08DA18B484
:1038F000064B1B6CFC46019308BD40DFAB43001038
:1039000000B5FFF7E5FF04BC9646F0E76012002023
:10391000132370B51D78012D19D014DD1F48FFF752
:103920003FFB06001E48FFF73BFB1E4C8022310088
:10393000200001F00FF8022D2DD01B48FFF728FBC7
:103940001A4B186070BD1A4B164CA364F5E7184B60
:10395000144C23606360A360E36023616361A3612F
:10396000E36123626362A362E36223636363A3632D
:10397000E36323646364A364E36423656365A3650D
:10398000E36523666366A366E36623676367A367ED
:10399000E367A364D1E7064BA364CEE7534400007A
:1039A00053460000601200204C33000070220020BB
:1039B000413C0010F0B545464E46DE4657461C00D9
:1039C0001300E0B589B0049305944D00129B904616
:1039D00064006A0D81469446640D002B02D01A00E3
:1039E000002313608F4DAC456FD0002C6DD0634623
:1039F000002B00D174E002000B00AC4267D0651EC2
:103A0000654564DC8022CB0F9B460B0352031B0BE6
:103A100013431F00059B4E461B031B0B9A46434650
:103A2000029353461A430392654500D18FE05B46EB
:103A3000002B00D1ADE03B003200002756429F41F1
:103A400063461D1B002D00DCB4E00120039B4042B7
:103A50001911FFF7FFFB00239B461D3381469A4651
:103A6000A846079418E032009A4001923300AB4018
:103A700020000093E117029A039B00F017FE009EBE
:103A8000019F5B46A346AB409B4443465B1B361AF3
:103A90008F419846002B26DD45460C2D00DD0C2578
:103AA0004B46BC115C4353465B1B1C412B0001344D
:103AB0006410203BD7D5202332005B1BDA40130073
:103AC0003A00AA401A430192D0E70022564B100058
:103AD000190009B0F0BCBB46B246A946A046F0BDED
:103AE00000220023F3E7079C029A039BBB4200DD00
:103AF0007CE000D176E0029A039BB61A9F41BB425C
:103B000000DD8BE000D185E0029A039BB61A9F414D
:103B100002239C46E3443200029803993B00921929
:103B20007B418B420BDC01D1824208D802998A4248
:103B30001BD1039A934218D15B46DB0715D5029A35
:103B4000039BB61A9F4101239C46E3440DE0974234
:103B50003FDD029A039B594692185B41002948D1E8
:103B6000B61A9F4101232C009B46059B002B02DACD
:103B70005B465B429B46129B002B01D05A461A6063
:103B80002A4A3000121B3900FFF78AFE02000B00A0
:103B90009DE763461D1B002D00DD56E7029A039B3F
:103BA000BB42CCDC33D0029A039BB61A9F4101235F
:103BB0009B46B0E700239B46029A039BB6185F41E1
:103BC000002F1FDAB6185F4102235B429C46E34494
:103BD000A1E7029B039CA74201D19E42B9D80200F3
:103BE0000B0074E7029BB34200D884E7002F92DAFF
:103BF000E2E7921BBB411F0001235B4216002C0031
:103C00009B46B2E701235B429C46E34483E7B24212
:103C1000C9D994E7029BB34200D875E701239C46BB
:103C2000E34478E7FF0700000000F07F3304000062
:103C300010B5002482B00094FFF7BCFE02B010BDA6
:103C400007B5604601880A0A0230DF2AFAD1C9B2F4
:103C5000820804D3028840880004104300E0006812
:103C6000014A5050039007BD601200200FB403BCFE
:103C70000CBCF0B50124E407634000E0F0B50C0D86
:103C8000CF0F661E3605891B640503D3C943404226
:103C900000D30131640D03D0661CF60A07D0E41B83
:103CA00000207F00791C89078912803C24031D0DA8
:103CB000DF0F6E1E36059B1B6D0503D3DB4352429F
:103CC00000D301336D0D03D06E1CF60A07D0ED1B37
:103CD00000227F007B1C9B079B12803D2D032F1B26
:103CE000661B58D4A446202E46DA20371400BC4068
:103CF0001D00BD40F24033412A4380185941CB0F8B
:103D000005D0C943C043002264425041514162463C
:103D10004D0D28D10D0D07D100281FD02419404189
:103D20004941013A0D0DF9D0640006D3013000D3AA
:103D30000131002C01D140084000013A0BD4941C01
:103D4000E40A04D112051144DB071944F0BDD90778
:103D5000204B194300E0D9070020F0BD0029DDD138
:103D6000002CDBD1F0BD0132C6074008CD07284347
:103D70004908002EE1D0D9E73C2E29DA203E403711
:103D80001400BC4000D00124F24014431A00BB4090
:103D90001C43D317ACE7AC46202F08DA20360400CA
:103DA000B4400D00B540F84039412843A5E73C2F09
:103DB0000CDA203F40360400B44000D00124F84023
:103DC00004430800B1400C43C117EAE71000190092
:103DD000002494E70000F07FF0B50C0D661E360558
:103DE000891BE60A6405640D02D0651CED0A04D047
:103DF000002001210905803C2403A4461C0D671EF8
:103E00003F05DB1BE70A6405640D02D0651CED0A63
:103E100004D0002201231B05803C24037740644426
:103E200097B484B296B27443070C7E43150C6F436B
:103E300080B26843361802D3012000043F183004D2
:103E4000350C00197D41844688B29AB250430C0C5F
:103E500062431F0C7C438EB27E43921902D301262B
:103E60003604A4191604170C3618674101BC81B238
:103E70009AB25143040C62431B0C5C4380B258431A
:103E8000121802D30120000424181004130C401847
:103E900063412D185E410020474106BC88B293B2B1
:103EA00058430C0C6343120C544389B251435B18C2
:103EB00002D301210904641819041A0C091862417B
:103EC0006D1856410020474118BCF902720D11438C
:103ED000F0026A0D1043ED020A0D03D16D19404145
:103EE0004941013B124E9B1B7600B3420ED26D003E
:103EF00007D30130002671416646354301D14008A1
:103F000040001B05C918E4072144F0BD0BDA01335A
:103F100006D1013004D101314F0D01D04908F2E73B
:103F2000E1070020F0BD013631050020EBE700007D
:103F3000FF030000F0B51C0D671E3F05DB1BE70A01
:103F40006405640D02D0661CF60A04D00022012329
:103F50001B05803C2403D0252D060026F6432E6643
:103F60001E096E66CE0FF619B44649004F0D02D0F9
:103F70007E1CF60A03D000200021403F3F033E1B79
:103F8000B600B444013F7F05C91B49082E6F0136B6
:103F900076089C02950D25437543ED137543AD13CB
:103FA00001356D10F603761B0CB4CC02450D2C4385
:103FB000A2B2B3B25A43270C7B43350C6F43A4B271
:103FC0006C431B1902D3012424043F191C041D0C4B
:103FD000A4187D4124196D41009A91B2ACB261439D
:103FE000170C7C432B0C5F4392B25A43A41802D3A4
:103FF00001221204BF182204230C52187B41019C99
:104000006C431B19520ED9010A434401A01A81B214
:10401000B2B2514303145A43360C734387B2774309
:10402000D617D21900277E4136049B191704160CA7
:104030007F185E417316ED18F30100268033754139
:10404000A90F06D16400690AE8055B0A184309D282
:104050002FE00422944480337541A90AA8059B0AE5
:10406000184326D3404149412404009A019B0D0086
:104070005543641B4343E41A95B286B27543170C4B
:104080007E43030C5F4392B25A43B61802D3012217
:104090001204BF183204330C52197B4152429C4126
:1040A000002C02D40022013051414008CA071043BD
:1040B000490802B06246D7079210084BD218084B45
:1040C0009A4203D212058918C919F0BD0020002AAE
:1040D00001DC3900F0BD01331905F5E7FD030000EF
:1040E000FE070000624618CA94465A46002A20DBA2
:1040F00004E0624618CA944600291ADAC0186141E1
:104100005B463B415C46B4405246FA40224344463B
:104110004D4662416B41904699462B46B3403D4126
:10412000FC401C4352465B46A241AB4192469B4633
:104130007047C01AA1414B463B414C46B4404246F1
:10414000FA40224354465D4662416B4192469B468B
:104150002B46B3403D41FC401C4342464B46A241E6
:10416000AB41904699467047002200B5203200F0DE
:1041700010F8080000BD002200B500F00CF8CA17C6
:104180009A4200D100BDD8430121C907414000BD7A
:1041900000220B150AD410B5944600F0A7F81414A9
:1041A000013400DA0021CB17144C204700200021F5
:1041B00070476244343A0CD40C2A07DA0400914068
:1041C000904052422032D440214310BDD843D943BD
:1041D00010BD203207D40C46944052422032114187
:1041E000D040204310BD0800C917203203D45242EA
:1041F0002032104110BD1800190010BDB34100104D
:104200004A00520D144BD21A13DDFF2A1EDAD205D2
:10421000CB0FDB071A43C300400F0903490A0843C9
:1042200010435B0001D301D0013070474308FBD23B
:10423000704702D0C80FC00770470A03121301323B
:10424000F8D1420F072AF5D1012200E0FF22C80F62
:1042500000028018C00570478003000000210A009A
:10426000002104E000210A00C11704E0002200231D
:1042700006E0C0460022CB1758405940C01A994169
:1042800030B5184CA21A002903D1010010D000202B
:10429000203A4C1512D104D2013A001849414C0D74
:1042A000FAD3114CA24204D212058918DB07C918AF
:1042B00030BDD243520D00200021F5E703D4013A6E
:1042C00000184941FBD50B324405C00A4D0528436F
:1042D000C90A640003D0002460416141E1E7E0D3F2
:1042E0004408F8E732040000FE0700000A0DCC0F76
:1042F000531E1B05C91A520503D3C943404200D3BC
:104300000131520D03D0531CDB0A07D0121B0020D1
:104310006400611C89078912803A1203014BD21A8A
:1043200070470000FF030000023225D40C2A1CDA7B
:104330001125AD1A0B002B41083207350600EE405F
:10434000904091403143F0CC63431A1500235A4109
:10435000554356435743BF02F41276057619674119
:10436000ED177F19801BB94170470C220020C91737
:10437000490001310905DBE70902030E1943000278
:104380005342203208D40C0019419440D8402043B5
:1043900000225041514170470800C917203B20328C
:1043A000F1D50020002100227047F0B5FFF78AF90F
:1043B00000F006F800F046F8FFF78AF9F0BD0000BB
:1043C00000B5FFF793FF30A4FFF7AEFF00242C4D9C
:1043D0002C4ED20702D3F6436D426641520004D2FE
:1043E000A246A346A846B14603E0A046A146AA4677
:1043F000B3466EA4A44601271F26FFF77AFE0137B5
:10440000013E212FF9D100BD594684B28DB26C43D3
:10441000061475430B145E4382B25A43AD18EA1773
:1044200000D7D2431204B6182A042B0C1219734178
:10443000404649469D009B17920F2A43904199415F
:104440003E2218E7494684B28DB26C430614754388
:104450000B145E4382B25A43AD18EA1700D7D24319
:104460001204B6182A042B0C1219734150465946EF
:104470009D009B17920F2A43504159413E22FAE674
:10448000BB4DF09DC556F6367D5100001A611400F3
:1044900085880A00FB211900F0B5FFF713F9404D9C
:1044A0000C002C4001D0AC4202D1090D09050020BE
:1044B0001C002C4001D0AC4202D11B0D1B05002278
:1044C0000026ED02002B04D502266B40694000D483
:1044D00076424F1904D599420CDD0136694003E05C
:1044E000BB4207DA013E6B40070010003A000F00A4
:1044F00019003B0040B4002A0FD1002B0AD05C0009
:104500006415013409D14C006415013402D101391C
:10451000013B02E0002000212EE0FFF70BFD3E22D0
:10452000FFF72AFE82468B460020002180460122AA
:10453000920791461DA4A44601271F26FFF7D2FD2E
:104540000137013E212FF9D14A4653460C3A012446
:104550006407002752081B0005D4934100197941D4
:104560006408F7D104E05341001BB9416408F1D15C
:10457000CE0749104008304340BC002E0AD0094CF9
:10458000094D01D5E443ED43F60701D10019694116
:10459000001969413D22FFF76EFEFFF799F8F0BD63
:1045A0000000F07F8D305A88A8F64332694FBB6116
:1045B0000567AC1DB16E4096FCBAAD0F72DB0BAB5C
:1045C000A66EF50739BD9FE576ABFE034B6297BA41
:1045D0005BD5FF01D694DBDDAAFAFF005DEAEE565B
:1045E00055FF7F006E77B7AAEAFF3F00BCBB555569
:1045F000FDFF1F00DEADAAAAFFFF0F006F5555F5A6
:10460000FFFF0700ABAAAAFEFFFF03005555D5FF29
:10461000FFFF0100ABAAFAFFFFFF00005555FFFFA7
:10462000FF7F0000ABEAFFFFFF3F000055FDFFFFEB
:10463000FF1F0000ABFFFFFFFF0F0000F5FFFFFFB4
:10464000FF070000FFFFFFFFFF0300000000000066
:104650000002000000000000000100000000000057
:10466000800000000000000040000000000000008A
:10467000200000000000000010000000000000000A
:10468000080000000000000004000000000000001E
:104690000200000000000000010000000000008097
:1046A00000000000000000400000000051434343B0
:1046B000C9188C46110C83B24B4310B4040C6143EF
:1046C00092B280B2504362431C041B0C001910BC10
:1046D00059411304120CC018514161447047000045
:1046E0004840414048400E4B5B6818470C4B1B68E4
:1046F00018470C4A936F9B0802D2094BDB68184796
:10470000F0B5146E556E576F166FFFF7F6FF054A3A
:104710001466556657671667F0BD014B9B681847CE
:1047200060130020000000D007B5484041404840D9
:1047300001E0C04607B54200120E03D0FF2A03D1A4
:10474000420218D8C00DC0054A00120E03D0FF2A3D
:1047500003D14A020FD8C90DC9050122414005D431
:10476000414001D5814207BD884207BD0143491838
:1047700001D0C043001807BD00B5FFF7DBFF804143
:1047800000BDC04600B5FFF7CFFF804100BD491A0C
:10479000002807D108467047C10FC90700D540421D
:1047A000002817D0F44603B40B4B1B68984706BC8F
:1047B00081409E384042803107D20B0607D0490025
:1047C000490AC0051043084360470130F8E7490A29
:1047D0008902F5E7704700007022002041000A0EB0
:1047E00080231B067E2A0BDD9E3A0BDAC11740029E
:1047F000400818435242D0404900013148437047B5
:1048000000207047C00FC01801387047C0420DD358
:1048100000B540004008002100F012F8002801D443
:10482000404200BD8020000600BD0000034BDB6954
:10483000FC4618471CDFF148001000006013002000
:10484000014B5B6A1847000060130020034BDB6FCD
:10485000FC4618477CDF0949001000006013002067
:10486000132310B512481C78FEF79AFB0100012CA7
:104870000AD003DD80220F4800F06CF80E48FEF7E6
:1048800087FB0E4B186010BD0A4C5422200000F02C
:1048900061F80B4B6365A365E36523666366A366F6
:1048A000E36623676367A367E3672362E361E5E782
:1048B00053460000601300204C330000702200209B
:1048C000C548001007B5604601880A0A0230DF2A91
:1048D000FAD1C9B2820804D3028840880004104388
:1048E00000E00068014A5050039007BD60130020AB
:1048F0000021C2158032803201D0024A10470020C8
:1049000070470000CD2A0000C30FDB0741000A0EEC
:1049100007D0FF2A08D00909054A8918194340071A
:1049200070471900002070470249C918FAE70000D3
:10493000000000380000F07F01480421014B1847B7
:1049400080100020B12F0010014B1B681847000099
:1049500080100020014B5B68184700008010002089
:104960009A4200D2885470477047C046F8B55746FF
:10497000DE464E464546E0B599460A9B07009A46F4
:104980000D9B884693460B9C9B073BD10C9B9C42FE
:104990003DD21E1B0B9415000C005E442A004B46B2
:1049A000013521002020B847B542F7D1A0460B9C25
:1049B000002C20D0454636195346321B013C185D69
:1049C00029004B46B847002CF6D12B0035009846FD
:1049D0000D9B9B070FD55B46EC1A0C9BA3420AD993
:1049E000464698462A004B46310020200134B847FD
:1049F00001354445F6D32800F0BCBB46B246A94673
:104A0000A046F8BD16001500002CD3D1E0E7160033
:104A1000002CCFD11500EEE7F0B54F464646D646FE
:104A2000C0B584B098460EAB1B7894469946129B4D
:104A30000D9C109F119E9A0725D4002E65D1BC4273
:104A400021D201221A409246202C00D1E9E00C9A92
:104A5000551E302202E0202C00D17BE001342A5583
:104A6000A742F8D85246002A0DD0B4420BD20C9A75
:104A7000551E3022202C02D171E0202C2DD0013483
:104A80002A55B442F9D1DA063CD55A052ED4002C69
:104A900028D10F9A102A00D1B6E0022A00D1BCE03A
:104AA00030220C9C227001244A46002A65D15A0704
:104AB00000D499E02B220C9D2A55013403930C9BC2
:104AC00062460093029643460194FFF74FFF04B0FD
:104AD000E0BCBA46B146A846F0BD2024DA06EDD5C2
:104AE0005A0503D4A74266D0B44264D00F9A102A64
:104AF00071D0022A57D0202CE0D02200013430257A
:104B00000C9FBD54202CD9D0CEE7012215001D40AA
:104B1000AA461A4236D04A46002A4AD10C321A42D4
:104B200047D1BC42A1D2202C91D1202E17D82024CD
:104B3000DA06C3D55A051BD4202F01D0202ED5D19B
:104B40001F220F9D102D6FD0022DD8D162250C9FF2
:104B5000BD54D0E75246002A79D0202EBDD920245A
:104B6000DA06ABD55A0503D4202FE9D0202EE7D0A2
:104B70000F9A102AA2D12024A0E72D220C9D2A559D
:104B800001349BE7BC4200D37DE7202C00D05EE7D8
:104B9000DA06F0D55A05EED4202F62D0202EEAD1C5
:104BA00034001F22CDE7202C00D187E722000134FA
:104BB000CCE7013EB5E7621E012CC2D10F9A102A44
:104BC00000D06AE79A063BD558220C9C2270283AFE
:104BD0006270022468E79A060ED4202CCBD078228B
:104BE0000C9D2A55013486E71A0700D466E7202277
:104BF0000C9D2A55013461E7202CBCD058250C9A15
:104C000012191570013476E79A0608D558220C9CC3
:104C1000227030226270022446E76032F7E7782281
:104C2000F5E7002A83D1B3E7A21E013C9D0603D419
:104C300078250C9FBD5460E758250C9FBD545CE758
:104C400078220C9C2270483A627002242CE7DA0623
:104C500000D433E75A058BD4202F00D044E71F221D
:104C60006FE73C001F226CE710B5002800D110BD93
:104C700001F07AFBFBE7C0460B0010B5002802D01C
:104C800049681B68984710BDF0B557464E464546E3
:104C9000DE46E0B599B08246894690460893229A4E
:104CA000239B10001900FEF7A2FD002800D0CDE0E4
:104CB000229823990122D94B5242FEF793FD0028F6
:104CC00000D0C3E0229823990122D54B5242FEF72F
:104CD0007BFD002800D0B9E0229823990022002310
:104CE000FEF772FD002800D0F1E1229E239F802371
:104CF000269ADB001A400D92269A1A4201D1062309
:104D000024938023269A1B011A403B009346099660
:104D1000334300D0B3E0002A00D0C2E100230024D6
:104D20000A930B94002304250993259B0024AB428E
:104D300000D95C1B0223269A1A400C92269A134231
:104D400003D06B426B415B421C40099B002B07D098
:104D50000A9A0B9B30003900FEF7D5FC06000F00C5
:104D60002298239900220023FEF72EFD002803D06D
:104D7000802109067B181F00269AAA4B00960197EE
:104D80001340089E0493249B0394029342463300ED
:104D90004946504600F0AAF90400002D67D02020B3
:104DA000269A4946024013005A4253415B42621C14
:104DB00018400A92330022004530D047099A6F1EEE
:104DC000D317D4185C40D30F9B46002501E0202D5B
:104DD00013D008AA94461F23200063440A210135FA
:104DE0005E19FEF737FA3031317020000A21FEF7E4
:104DF00031FA26000400092EE9D805230693002382
:104E000004930A3303935B46089E029310AB0A9AFD
:104E1000009349463300504605970195FFF7FCFD86
:104E20000C9A0400002A22D04246851A259AAA42EA
:104E30001DD9B04657461600220043464946202059
:104E40000135B8470134AE42F6D810E0269B424601
:104E50000493259B49460393249B50460293229B2F
:104E6000239C00930194089B00F040F9040020006B
:104E700019B0F0BCBB46B246A946A046F0BD6A4B8D
:104E800078009C46400D6044FEF7C2FC674A684BC0
:104E9000FEF757FC674A684BFEF72CFC674A3B035A
:104EA0001B0B1A4304000D0009981100644B0022EB
:104EB000FEF717FC634A644BFEF743FC02000B004D
:104EC00020002900FEF716FCFEF7BAFC0990FEF759
:104ED0009FFC5E4A5E4B04000D00FEF732FC002290
:104EE0005C4BFEF707FCFEF7ABFC5B4A5B4B290013
:104EF0000C902000FEF725FC04000C980D00FEF736
:104F000087FC574A574BFEF71CFC02000B002000A1
:104F10002900FEF7E6FB04000D0002000B000A94D6
:104F20000B95FEF70EFC04000D000A980B99020089
:104F30000B00FEF7DFFB00220E900F914A4B200082
:104F40002900FEF7E0FB0022484BFEF7D3FB0200EE
:104F50000B0020002900FEF7D6FB0022444BFEF791
:104F6000C9FB02000B0020002900FEF7CCFB0A9AC7
:104F70000B9B0D0080210400C9050020FEF7B1FB4A
:104F800002000B0020002900FEF7B4FB02000B001A
:104F90000E980F99FEF7B7FB0022284BFEF7AAFBED
:104FA000344B0C9C9C46644423050022FEF7C9FB4D
:104FB00004000D0002000B00300039000A940B952C
:104FC000FEF702FC00285DD123002A00C6250999BE
:104FD00063318D42AD4159466D420435002900D1FF
:104FE000A3E6134363D030003900234A234BFEF776
:104FF000F1FB002807D0002230003900204BFEF7DB
:10500000E3FB002853D1249B002B00D18DE60D9BA0
:105010005A1E9341249AD31A249386E6FFFFEF7F0A
:10502000FFFFEFFFFFF7FFFF01FCFFFFFB799F5042
:105030001344D33FB3C8608B288AC63F0000F03FBB
:105040000000F83F61436F63A787D23F71A37909DE
:105050004F930A400000E03F1655B5BBB16B0240CC
:10506000EF39FAFE422EE63F00002C4000002440BB
:1050700000001840FF0300002D431CEBE2361A3FEE
:1050800080842E41099B0022013B09932000164B8E
:105090002900FEF738FB0A00010003000A910B9279
:1050A00094E7002300240A930B9400230993249A85
:1050B000099B9A4214DDD31A013B24938023269A3C
:1050C000DB001A4300230025269209932DE6802257
:1050D00012069446229B1E00239B63441F0006E693
:1050E00000232493EAE7C04600002440F0B545467B
:1050F000DE464E465746E0B595B08B4690469946FB
:105100001E9A1F9B0A9019001000209DFEF76FFB4E
:10511000002800D0B0E11E981F990122C74B5242CF
:10512000FEF752FB002800D037E11E981F9901229C
:10513000C34B5242FEF756FB002800D0A7E01E9852
:105140001F990022BF4BFEF74DFB002800D088E0DE
:105150001E981F990022BC4BFEF736FB002800D09A
:105160007FE01E981F9900220023FEF72DFB0028E8
:1051700000D0FAE000230B938023229C229ADB00CC
:105180001C401A4200D102E1092D00D87CE106A999
:105190008C462C00172200233021093C6244013345
:1051A000D154EF1A202B00D132E1A342F7D10022D3
:1051B000A44B069207931E981F99FEF741FB05002A
:1051C000FEF726FB02000B001E981F99FEF789FAD6
:1051D000069A079BFEF7B5FA08900991FEF754FB73
:1051E0000600FEF711FB02000B0008980999FEF774
:1051F00078FA0022954B08900991FEF7F3FA0028FF
:1052000000D1D2E001363000FEF7FEFA069A079B85
:10521000FEF7E0FA002801D000260135AA46002F4B
:1052200000D098E02800FEF7F3FA02000B001E9869
:105230001F99FEF756FA854B002206000F00FEF775
:10524000C3FA0CAB9A46002845D100223000390041
:105250007E4BFEF7C7FA00283DD1EB073BD5013561
:1052600039E0229B42460493219B594603930A98B6
:105270001E9B1F9C0295009301944B46FFF704FD73
:1052800015B0F0BCBB46B246A946A046F0BD229B75
:105290005B0767D403226E4B2299019203912199F7
:1052A0000291009342464B4659460A98FFF75EFB2F
:1052B000E6E706AA94461723280063440A2101342E
:1052C0001E19FDF79FFF3031280031700A21FDF7CC
:1052D00099FF051E76D0202CEBD10323229A134090
:1052E000012B1DD1219B002B1AD00B9B002B00D032
:1052F000BBE0229A0C33134200D0B6E0219BA342BC
:1053000000D887E006AB9C4617223023624404E0B5
:105310002199013413558C4259D0202CF8D12024E6
:10532000229B01940393219B02935346B9E706AA5B
:10533000944617230A216344300001341D19FDF7F8
:1053400089FF3031297030000A21013FFDF782FFCB
:10535000092E46D90600202CE9D155460CAB202455
:105360009A46B8E704223B4B96E71E9A1F9B002003
:105370000021FEF7B6F901230B938023229C229A89
:10538000DB001E901F911C401A4200D0FCE6002258
:10539000314B0627069207930DE7229B0393219B2F
:1053A0000293042301932D4B7BE70022089809996F
:1053B000264BFEF709FA002800D02FE7002E4FD128
:1053C00001362BE70323229A1340012B66D0202CB1
:1053D000A6D00B9B002B1FD02D2352461355013412
:1053E0009EE75546202CB9D030233A19002F08D01B
:1053F000172006A9013409180B55202CAED0944271
:10540000F6D10CAB9A462E2352461355013462E76F
:105410002024CCE6202C83D0229B5B0708D4229B3F
:105420001B0700D47CE7202352461355013477E74D
:105430002B2352461355013472E7C046FFFFEFFF9E
:10544000FFFFEF7F65CDCD4165CDCDC10000E03FD1
:10545000449300103C93001080842E414C93001024
:10546000F30700D4DAE60136D8E6219B013B21930D
:10547000A34200D946E7AAE7229B0393219B02930C
:1054800003230193074B0CE7074BEA009B185C686A
:105490001B682F000693079400248CE6219B002BA9
:1054A00095D022E748930010509B0010F0B5574666
:1054B000DE464E464546E0B5A5B01F002E9B914600
:1054C0000D93CA4ACA4B82468B461A60002900D106
:1054D00029E2002338789846002800D12BE2C54BFA
:1054E00044460C93C44B55464E460E930AE0631C4B
:1054F0009846220033005946A84744463878002889
:1055000000D187E001372528F1D108239A46043BD2
:105510009946023B9846013B00229C460B94387802
:10552000791C0300203BDBB2102B03D80C9C9B00A2
:10553000E3589F460300303B0B9C0B92092B3AD952
:10554000002398462A2800D1DDE000239A462E2821
:105550004BD00300683BDBB2122B1ED80E9A9B0087
:10556000D3589F4663460F001A43D8E743460F00BF
:105570001A43D4E74B460F001A43D0E710230F001D
:105580001A43CCE753460F001A43C8E780235B0059
:105590000B9A78781A430B9201310F0067284FD885
:1055A0002428A4D90300253BDBB2422B9FD8934982
:1055B0009B00CB589F46002398460B9B47469C4632
:1055C00000E00131BB00DB195B001F180878303F99
:1055D0000300303B092BF4D963460B930023B846F4
:1055E0009A460F0001312E28B3D180200B9AC000BB
:1055F00002430B9230225242944678780B00844446
:105600006246092A00D8AAE12A2800D1B9E10F0090
:1056100001319EE7A046AA46B146C84503D30123FF
:105620005B424B4498464B46424659460020D04781
:10563000200025B0F0BCBB46B246A946A046F0BD4E
:1056400001006939C9B20F2900D950E701238B4005
:105650009C466B4B994663464A4613400F936246FD
:105660004B461A4200D068E10A2956D0072900D0DB
:105670003DE70D9B02CB9846002900D092E10B9BA1
:1056800010211A008A4310001131084381468020FE
:105690001A00C0000240110003421CD114AB9C460A
:1056A0001F220F2362440D959C4615000F9B0B94FF
:1056B00002E0202B0CD0110064460C402000373053
:1056C000092C00D807380133E8540A090F29F0D80B
:1056D0000B9C0D9D0F934B46082206935346059253
:1056E00008320392002204930F9B029201931CAB99
:1056F00022000093594633002800FFF78DF94346F6
:1057000004000D93FAE60D9B04CB9046002A79DB4A
:1057100078780D930F00013117E70D9B02CB14939E
:105720000B789C4618005346002B00D134E100282A
:1057300015D05346013B013399460D940B9C894487
:105740004A460B00A14601E0934203D05C78013346
:10575000002CF9D14A465B1A0D9C0B920F938023C3
:10576000DB0099460B9A13400D934B461A4204D026
:105770000F9B534501D953460F93022399460B9A29
:1057800013400B934B46134200D1F5E16346002BC7
:1057900000D1D6E10D9B002B00D182E10B1BD1463D
:1057A00031009A463B00A1442E005F464D46220040
:1057B0009B46894609E04B463900541CB047534686
:1057C000185D002800D192E122009542F3D14B46AA
:1057D0005A46A946BB46350017001E004C460B9B97
:1057E000002B00D0ADE1149B0D9387E6AD54001063
:1057F00024210020B4990010F8990010449A001058
:10580000419000000B9A283802430B9242465242C4
:10581000787890460F000D93013196E678786C28E1
:1058200000D15DE180230B9A5B001A430B9201319A
:10583000B3E680239B00ABE67878682800D148E186
:1058400080230B9A01311A430B92A6E6672800D1F8
:10585000B2E0472800D11AE1452800D11CE10B9A9B
:105860000721049242460D9B0392073352468B4315
:10587000190002920CC92800009201930D91220098
:1058800033005946FFF700FA040037E6462800D1F6
:105890008DE00B9A0721049242460D9B0392073339
:1058A00052468B43190002920CC9280000920193C2
:1058B0000D91220033005946FFF718FC04001DE645
:1058C000631C98462200330059462520A8474446C9
:1058D00014E60D9B04330F93631C99460B9B9A07A8
:1058E00000D40AE10D9B2200187859463300A847DE
:1058F00043464444012B00D86FE1B0462E002500FA
:105900004C46B9465F462200434601343900202008
:10591000B047AC42F7D12C00BB4635004F46464657
:105920000F9B0D93EAE5D64B38789A4600239846AC
:10593000002800D0D3E500246FE66F2842D000D8BD
:10594000FDE11023782800D19BE00B9A9A430B923B
:105950000A239C46002314930A330F9338E05746DA
:105960000B9AB900C919490001330F181878303F54
:10597000010030390929F4D9BA460B921F00591C8D
:10598000E7E50D9BB87804CB0237D143C9170A402D
:1059900092460D93791CDCE5002800D1DFE6022356
:1059A0005B42C8E621200B9A0243914676E620230B
:1059B0000B9A1A430B926CE780230B9A1B011A4334
:1059C0000B924CE708239C460023149308330F9353
:1059D0000B9880230200DB001A40110002001842DD
:1059E00000D080E00C239A431000802302009B002B
:1059F0001A400B92184200D0F1E0802302005B00B5
:105A00001A4091460D9A04321492184200D0C3E213
:105A1000430600D5D7E0030600D421E30D9B1B8885
:105A20000993002B00D02DE110339843002900D1B9
:105A300028E10023994643460593534604930F9B60
:105A400006900393002302934B4601931CAB220064
:105A50000093594633002800FEF7DEFF0400C2E63B
:105A6000582809D0622800D0E3E202239C46002394
:105A7000149302330F93ABE720230B9A1A430B9234
:105A8000103B9C460023149310330F93A0E7802310
:105A90000B9A1B011A430B9220230B9A1A430B9269
:105AA000DDE60B1B9A460F9B99463B0037005E468E
:105AB0009B4622003B003100A84753460134185D45
:105AC0000028F6D14B460F935B46B3463E001F00BD
:105AD00085E6C0230B9AB8781A430B92F91C5CE553
